:020000040000FA
:1000000083160313880106309F00003085008301AA
:100010008801850188098501051420203B200510F1
:10002000851429203B208510051529203B2005112A
:10003000851520203B208511051632203B200B28FA
:1000400008108810081188110812881208138817E0
:100050000800081088100811881108128812081763
:1000600088170800081088140811881108168812CB
:100070000813881708005030B0005030B100B10BA1
:080080003F28B00B3D280800E9
:04008800003400340C
:02400E00321866
:00000001FF
